:100000001AEF01F00000000042EF00F000000000D5
:0C00100000000000000000009DEF00F068
:10001C003AC000F0000E016E026E036E00360090C6
:10002C0001360236033600360090013602360336AE
:10003C00B00E0026020E0122000E022200C0F6FFB6
:10004C0001C0F7FF02C0F8FF0900F5CFD7FF020E81
:10005C000024F66E000E0120F76E000E0220F86EE2
:08006C000900F5CFD6FF1200D8
:100074000900F5CFE6FF0006FBE10106F9E11200F5
:1000840000C027F001C026F002C025F003C024F010
:1000940004C023F0F5CF2BF0F8CF28F0F7CF29F0E8
:1000A400F6CF2AF02F50010A02E12F6A02D0010E86
:1000B4002F6EF292F28EF28CF2882FC000F0000EB6
:1000C400016E026E036E003600900136023603366E
:1000D40000360090013602360336B00E0026020EBA
:1000E4000122000E022200C0F6FF01C0F7FF02C089
:1000F400F8FF0900F5CFD7FF020E0024F66E000EBC
:100104000120F76E000E0220F86E0900F5CFD6FF2D
:100114002BC0F5FF28C0F8FF29C0F7FF2AC0F6FF5F
:1001240027C000F026C001F025C002F024C003F06F
:0601340023C004F01100DD
:10013A0000C01CF001C01BF002C01AF003C019F085
:10014A0004C018F0E9CF21F0EACF22F0F5CF20F071
:10015A00F8CF1DF0F7CF1EF0F6CF1FF0156ED8CFEF
:10016A0016F0E0CF17F02C4A2D2A300E2C24E96E17
:10017A00000E2D20EA6EEECF8CFF2E50010A02E10E
:10018A002E6A02D0010E2E6E2EB002D08B9001D0B4
:10019A008B80F294F28EF28CF28A2FC000F0000E5D
:1001AA00016E026E036E0036009001360236033687
:1001BA0000360090013602360336B00E0026020ED3
:1001CA000122000E022200C0F6FF01C0F7FF02C0A2
:1001DA00F8FF0900F5CFD7FF020E0024F66E000ED5
:1001EA000120F76E000E0220F86E0900F5CFD6FF47
:1001FA001750E06E1650D86E153A153820C0F5FF24
:10020A001DC0F8FF1EC0F7FF1FC0F6FF1CC000F09C
:10021A001BC001F01AC002F019C003F018C004F0A4
:0A022A0021C0E9FF22C0EAFF100026
:100234002C6A2D6A2E6A010E2F6EFC0E306E610E32
:10024400316EDA0E326EF30E336E660E346EB70E06
:10025400356EBE0E366EE10E376EFE0E386EF70E3C
:10026400396E0F01386B396B3A6B3B6B926A956A46
:10027400946A9380938289808992899489962FC005
:100284003AF0CADE860ED56ED08EF28EF28CF288EB
:10029400F28AF19EF194F08C300E2C24E96E000E5B
:0C02A4002D20EA6EEECF8CFFFFD7FFD7B5
:0802B000C200F700F000BE00DF
:020000040030CA
:0D000100231F3CFFBF81FF0FC00FE00F4029
:00000001FF
