:1000000008EF01F00000000042EF00F000000000E7
:0C00100000000000000000009DEF00F068
:10001C002CC000F0000E016E026E036E00360090D4
:10002C0001360236033600360090013602360336AE
:10003C00420E0026020E0122000E022200C0F6FF24
:10004C0001C0F7FF02C0F8FF0900F5CFD7FF020E81
:10005C000024F66E000E0120F76E000E0220F86EE2
:08006C000900F5CFD6FF1200D8
:100074000900F5CFE6FF0006FBE10106F9E11200F5
:1000840000C025F001C024F002C023F003C022F018
:1000940004C021F0F5CF29F0F8CF26F0F7CF27F0F0
:1000A400F6CF28F02B50010A02E12B6A02D0010E90
:1000B4002B6EF292F28EF28CF2882BC000F0000EBE
:1000C400016E026E036E003600900136023603366E
:1000D40000360090013602360336420E0026020E28
:1000E4000122000E022200C0F6FF01C0F7FF02C089
:1000F400F8FF0900F5CFD7FF020E0024F66E000EBC
:100104000120F76E000E0220F86E0900F5CFD6FF2D
:1001140029C0F5FF26C0F8FF27C0F7FF28C0F6FF67
:1001240025C000F024C001F023C002F022C003F077
:0601340021C004F01100DF
:10013A0000C01CF001C01BF002C01AF003C019F085
:10014A0004C018F0F5CF20F0F8CF1DF0F7CF1EF05D
:10015A00F6CF1FF0156ED8CF16F0E0CF17F02A5061
:10016A00010A02E12A6A02D0010E2A6E2AB002D0DE
:10017A008B9001D08B80F294F28EF28CF28A2BC093
:10018A0000F0000E016E026E036E0036009001361A
:10019A000236033600360090013602360336420E26
:1001AA000026020E0122000E022200C0F6FF01C044
:1001BA00F7FF02C0F8FF0900F5CFD7FF020E0024AF
:1001CA00F66E000E0120F76E000E0220F86E09008E
:1001DA00F5CFD6FF1750E06E1650D86E153A15387F
:1001EA0020C0F5FF1DC0F8FF1EC0F7FF1FC0F6FFB5
:1001FA001CC000F01BC001F01AC002F019C003F0C5
:06020A0018C004F0100012
:100210002A6A010E2B6E0F01396B3A6B82908B901C
:10022000818081822BC02CF0F9DE860ED56ED08EB7
:10023000F28EF28CF288F28AF19EF194F08CFFD764
:02024000FFD7E6
:08024200C200F700F000BE004D
:020000040030CA
:0D000100231F3CFFBF81FF0FC00FE00F4029
:00000001FF
